{
  "_format": "hh-sol-artifact-1",
  "contractName": "SimpleStorage",
  "sourceName": "contracts/simple-storage.sol",
  "abi": [
    {
      "inputs": [],
      "stateMutability": "nonpayable",
      "type": "constructor"
    },
    {
      "anonymous": false,
      "inputs": [
        {
          "indexed": false,
          "internalType": "string",
          "name": "newMessage",
          "type": "string"
        }
      ],
      "name": "MessageUpdated",
      "type": "event"
    },
    {
      "anonymous": false,
      "inputs": [
        {
          "indexed": true,
          "internalType": "address",
          "name": "oldOwner",
          "type": "address"
        },
        {
          "indexed": true,
          "internalType": "address",
          "name": "newOwner",
          "type": "address"
        }
      ],
      "name": "OwnerSet",
      "type": "event"
    },
    {
      "anonymous": false,
      "inputs": [
        {
          "indexed": false,
          "internalType": "uint256",
          "name": "newValue",
          "type": "uint256"
        }
      ],
      "name": "ValueUpdated",
      "type": "event"
    },
    {
      "inputs": [],
      "name": "getValue",
      "outputs": [
        {
          "internalType": "uint256",
          "name": "",
          "type": "uint256"
        }
      ],
      "stateMutability": "view",
      "type": "function"
    },
    {
      "inputs": [],
      "name": "message",
      "outputs": [
        {
          "internalType": "string",
          "name": "",
          "type": "string"
        }
      ],
      "stateMutability": "view",
      "type": "function"
    },
    {
      "inputs": [],
      "name": "owner",
      "outputs": [
        {
          "internalType": "address",
          "name": "",
          "type": "address"
        }
      ],
      "stateMutability": "view",
      "type": "function"
    },
    {
      "inputs": [
        {
          "internalType": "string",
          "name": "_message",
          "type": "string"
        }
      ],
      "name": "setMessage",
      "outputs": [],
      "stateMutability": "nonpayable",
      "type": "function"
    },
    {
      "inputs": [
        {
          "internalType": "uint256",
          "name": "_value",
          "type": "uint256"
        }
      ],
      "name": "setValue",
      "outputs": [],
      "stateMutability": "nonpayable",
      "type": "function"
    }
  ],
  "bytecode": "0x608060405234801561000f575f5ffd5b505f80546001600160a01b0319163317905560408051808201909152601981527f48656c6c6f2066726f6d2053696d706c6553746f7261676521000000000000006020820152600290610062908261012c565b5060405133905f907f342827c97908e5e2f71151c08502a66d44b6f758e3ac2f1de95f02eb95f0a735908290a36101e6565b634e487b7160e01b5f52604160045260245ffd5b600181811c908216806100bc57607f821691505b6020821081036100da57634e487b7160e01b5f52602260045260245ffd5b50919050565b601f82111561012757805f5260205f20601f840160051c810160208510156101055750805b601f840160051c820191505b81811015610124575f8155600101610111565b50505b505050565b81516001600160401b0381111561014557610145610094565b6101598161015384546100a8565b846100e0565b6020601f82116001811461018b575f83156101745750848201515b5f19600385901b1c1916600184901b178455610124565b5f84815260208120601f198516915b828110156101ba578785015182556020948501946001909201910161019a565b50848210156101d757868401515f19600387901b60f8161c191681555b50505050600190811b01905550565b61054e806101f35f395ff3fe608060405234801561000f575f5ffd5b5060043610610064575f3560e01c8063552410771161004d57806355241077146100935780638da5cb5b146100a6578063e21f37ce146100ea575f5ffd5b80632096525514610068578063368b87721461007e575b5f5ffd5b6001546040519081526020015b60405180910390f35b61009161008c3660046102c4565b6100ff565b005b6100916100a1366004610377565b61019d565b5f546100c59073ffffffffffffffffffffffffffffffffffffffff1681565b60405173ffffffffffffffffffffffffffffffffffffffff9091168152602001610075565b6100f2610224565b604051610075919061038e565b5f5473ffffffffffffffffffffffffffffffffffffffff1633146101565760405162461bcd60e51b81526020600482015260096024820152682737ba1037bbb732b960b91b60448201526064015b60405180910390fd5b6002610162828261045d565b507f8fae638bf5c6396194a6bb16601c4035a07fa48191638ff4102f0d96f14cfefb81604051610192919061038e565b60405180910390a150565b5f5473ffffffffffffffffffffffffffffffffffffffff1633146101ef5760405162461bcd60e51b81526020600482015260096024820152682737ba1037bbb732b960b91b604482015260640161014d565b60018190556040518181527f4273d0736f60e0dedfe745e86718093d8ec8646ebd2a60cd60643eeced56581190602001610192565b60028054610231906103d9565b80601f016020809104026020016040519081016040528092919081815260200182805461025d906103d9565b80156102a85780601f1061027f576101008083540402835291602001916102a8565b820191905f5260205f20905b81548152906001019060200180831161028b57829003601f168201915b505050505081565b634e487b7160e01b5f52604160045260245ffd5b5f602082840312156102d4575f5ffd5b813567ffffffffffffffff8111156102ea575f5ffd5b8201601f810184136102fa575f5ffd5b803567ffffffffffffffff811115610314576103146102b0565b604051601f8201601f19908116603f0116810167ffffffffffffffff81118282101715610343576103436102b0565b60405281815282820160200186101561035a575f5ffd5b816020840160208301375f91810160200191909152949350505050565b5f60208284031215610387575f5ffd5b5035919050565b602081525f82518060208401525f5b818110156103ba576020818601810151604086840101520161039d565b505f604082850101526040601f19601f83011684010191505092915050565b600181811c908216806103ed57607f821691505b60208210810361040b57634e487b7160e01b5f52602260045260245ffd5b50919050565b601f82111561045857805f5260205f20601f840160051c810160208510156104365750805b601f840160051c820191505b81811015610455575f8155600101610442565b50505b505050565b815167ffffffffffffffff811115610477576104776102b0565b61048b8161048584546103d9565b84610411565b6020601f8211600181146104bd575f83156104a65750848201515b5f19600385901b1c1916600184901b178455610455565b5f84815260208120601f198516915b828110156104ec57878501518255602094850194600190920191016104cc565b508482101561050957868401515f19600387901b60f8161c191681555b50505050600190811b0190555056fea264697066735822122040f2d82d112fed8e6b0c31b03f99f348cedacc9405e013bcecb4539919a96cef64736f6c634300081b0033",
  "linkReferences": {},
  "deployedLinkReferences": {}
}